:020000040800F2
:1000000090080020B1040008AD040008AD04000809
:10001000AD040008AD040008AD04000800000000B5
:10002000000000000000000000000000AD04000817
:10003000AD04000800000000AD040008AD04000895
:10004000B1040008B1040008B1040008B1040008BC
:10005000B1040008B1040008B1040008B1040008AC
:10006000B1040008B1040008B1040008B10400089C
:10007000B1040008B1040008B1040008B10400088C
:10008000B1040008B1040008B1040008B10400087C
:10009000B1040008B1040008B1040008B10400086C
:1000A000B1040008B1040008B1040008B10400085C
:1000B000B1040008B1040008B1040008B10400084C
:1000C000B1040008B1040008B1040008F5000008FC
:1000D000B104000875040008B1040008B104000868
:1000E000B1040008B1040008B1040008251100089B
:1000F000B1040008234B10B41A68D72A20D8186816
:100100002149224A0C5C107804421868095C107876
:1001100023D111EA50001E4914BF43F6037043F681
:100120003F708881117819488908117012788AB94E
:10013000802202701A685DF8044B01321A60704721
:10014000144B1A789AB9124A938823F080031B043F
:100150001B0C93805DF8044B704711EA50000C496A
:1001600014BF40F2033040F23F308881DAE7084A9A
:100170004FF6FF7191811A78013AD2B21A705DF888
:10018000044B704748000020700300206C030020DF
:100190000030014040000020F0B4374C374BE1699B
:1001A000102741F00101E1611968354A21F440113D
:1001B0001960196840F2413C41F4001119609968D6
:1001C000304D41F440119960D968202621F4401146
:1001D000D960596A012021F470615962596A41F469
:1001E000E0615962196821F440211960196841F4ED
:1001F00000211960998821F40071B940F940998073
:10020000996841F440219960D96821F4402141F472
:100210008021D960596A21F0F0015962596A41F090
:1002200070015962236A43F48043236293899BB22D
:1002300043F400539381938923F48053BB40FB40E4
:100240009381138A23F44053BB40FB40138293896C
:10025000C3F30E039381A2F808C093899BB243F0C5
:100260000C03938185F825736E6093899BB23343A9
:100270009381F0BC704700BF00380240000002408C
:100280000038014000E100E00A4B1A680D2A07D946
:10029000094A938923F080031B041B0C9381704748
:1002A00019680648044A415CC9B291801A68013253
:1002B0001A607047000000200038014064040020EC
:1002C000002303491A46CA5401330E2BFBD1704751
:1002D000640400202DE9F0071D4B1E4A93F80B9093
:1002E00093F80A80597A1C7ADE7993F807A09F79EF
:1002F000CAF3021A587907F07F0793F804C0DD7833
:100300009B7809F07F094AEAC70747EAC37708F0F4
:100310007F0849EA067600F07F0046EAC8160CF02E
:100320007F0347EA802001F07F0104F07F0446EA62
:10033000813140EA434005F07F0341EA445140EAFD
:100340000363C943DB431160BDE8F00753607047A6
:1003500054040020780400200D4930B4F1220D4DE2
:100360004A700223981E285C094CC0B2C854C85C6D
:1003700001330C2B82EA0002F4D162F07F02D2B288
:100380007F21052322732170637330BC704700BF47
:10039000640400208004002038B5204802234278FD
:1003A000D2B2C15C01330C2B82EA01021B49F8D1A5
:1003B00062F07F020B7BD2B2934201D0002038BDA5
:1003C0004A78D2B2F12A23D0F22A05D0F02AF5D108
:1003D000FFF780FF012038BD114902234A708120B8
:1003E000C85401330C2B0E4AFAD10E4BF2257F2450
:1003F000052000211573147050731960FFF744FF36
:10040000094B01209A8992B242F080029A8138BD4C
:10041000FFF7A2FF034B00221A60EFE7540400200D
:100420006404002000000020003801400E4B9A8830
:100430000E4BD2B27F2A0BD0996831B159680C2982
:100440000AD90021052A996000D07047FFF7A4BFA0
:1004500001225A609A6070475968054842545A68A8
:1004600001325A60704700BF003801400000002090
:100470005404002000B50C4B83B01B8899060FD4A0
:10048000094B1A88120702D59B889BB20193064B31
:100490001B881B0601D5FFF7F7FE03B05DF804FBD0
:1004A000FFF7C4FFECE700BF00380140FEE700BFE4
:1004B00008B500F02BF8BDE8084000F0BBB800BF5D
:1004C000104A114BD16941F00401D1611A6822F040
:1004D0000C021A601A6822F470221A601A6842F438
:1004E000A0221A609A8822F440721204120C9A8098
:1004F0009A6842F470229A60DA6822F47022DA6014
:10050000704700BF003802400008024010B5314C6F
:10051000314B2168002241F480712160A1680B40B9
:10052000A360236823F0885323F00113236023681A
:1005300023F480232360A36823F47D03A360E26097
:10054000FFF7BEFF606A254A254B40F080504FF40C
:100550000061606211601A6842F004021A601A6851
:1005600042F002021A601A6842F001021A6023681F
:1005700043F00103236023689B0703D400BF236873
:100580009807FBD5134A936823F4803393609368EC
:1005900023F47C039360936843F4880393601368A7
:1005A00043F0807313601368990103D400BF13688C
:1005B0009B01FBD5074B0B4A98684FF0006140F058
:1005C0000300986098689860986898609868986048
:1005D000916010BD003802400CC0FF8800700040E0
:1005E000003C024000ED00E0104A114BD16941F09F
:1005F0000401D1611A6822F00C021A601A6822F410
:1006000070221A601A6842F4A0221A609A8822F4B2
:1006100040721204120C9A809A6842F470229A6016
:10062000DA6822F47022DA60704700BF00380240B6
:100630000008024008B5FFF7D7FF00F0E9FDFFF71B
:100640003FFE00F089FD00F01DFEFFF7A5FD00F064
:1006500019FE064CA28A064B92B282F40072A28264
:1006600000BF013BFCD100F00DFEF3E700080240A3
:100670003F420F00104A114BD16941F00101D16195
:100680001A6822F0C0021A601A6822F0FC021A608E
:100690001A6842F054021A609A8822F00E0212047C
:1006A000120C9A809A6842F0FC029A60DA6822F092
:1006B000FC02DA60704700BF0038024000000240D0
:1006C00070B4184C0E23638320224FF00043082699
:1006D0004FF00405034214BF26836683013A258345
:1006E0004FEA53036583F5D10E4820224FF00043B3
:1006F00008264FF004040B4214BF06834683013AD8
:1007000004834FEA53034483064DF4D102232B8321
:100710004FF42F7300BF013BFCD1024B02225A83DE
:1007200070BC7047000002402A492B4AC8692DE975
:10073000F00140F02F00C8611168284B21F440718E
:1007400011601968DFF8ACC021F4407119601168BC
:10075000234C01EA0C011160002719681F60216811
:10076000204801F47021216005681F4925F03005FB
:1007700005600D681D4E25F00C050D60D2F80C804B
:100780001B4D08EA0C0CC2F80CC0D3F80CC0DF609B
:10079000E76807F47027E760C76827F03007C7608D
:1007A000CF6827F00C07CF60D7683E43D660DA6881
:1007B00042F05532DA60E3681D43E560C36843F0F8
:1007C0001003C360CB68BDE8F00143F00403CB60C5
:1007D000704700BF003802400000024000040240A1
:1007E00000080240000C0240001402400115414183
:1007F00055555055FCC03C3CF0B49DF810509DF848
:1008000014709DF818C0A0B91D4804681C4E04B1AE
:1008100039BB01681A4C01B1C2B903B985B10023D3
:1008200043600368164A2BBB53601372007AF0BC16
:10083000704713484FF4C876012406604460E4E72B
:10084000002FECD1BCF1000FEBD0E8E76268022A80
:10085000E3D14FF4C8760321012226606160227241
:10086000DBE771680129D4D14FF4C87402213460E8
:100870007160CEE71368F0BC013B1360007A7047EB
:100880000C000020F0B49DF810409DF814609DF815
:100890001870D8B92748C568DFF898C00DB100298D
:1008A0003CD1C168234D09B1002A2ED1C26821492B
:1008B00002B1FBB904B98EB100230361C3681D4ABC
:1008C00093B913611375007DF0BC704719484FF45C
:1008D000C87C0125C0F80CC00561DCE7002FEBD116
:1008E000C368144A002BECD0D368F0BC013BD36042
:1008F000007D70470B69032BDCD14FF4C8750422CF
:100900000123CD600A610B75D4E72A69022ACDD193
:100910004FF4C8710322E9602A61C7E7DCF81010C0
:100920000129BED14FF4C8750221CCF80C50CCF887
:100930001010B6E70C000020224B40BB4FF4FA70B9
:100940009861E1B94FF4FA71D96182B94FF4FA7242
:100950001A6299691B4A09B1D169F9B99A6A1949A8
:10096000002A28D181F8242093F824007047196ABE
:10097000144A0029EDD0116A01391162E9E7D869FA
:1009800010490028E1D0C8690138C861DDE79869DD
:100990000028D6D0986901389861D2E7116A0029F9
:1009A000DCD04FF4FA71012082F8240091629A6A37
:1009B0000449002AD6D08A6A013A8A6293F8240050
:1009C000704700BF0C0000202DE9F04FB1B00DF1D1
:1009D00093030DF1BD01002203F8012F8B42FBD1DF
:1009E0009DF89B009DF89D209DF89E309DF89F40AE
:1009F00021909DF8A00010920F939DF8A1209DF8E2
:100A0000A2300E940D909DF8A3409DF8A4000C9286
:100A10000B939DF8A5209DF8A6300A9409909DF8A7
:100A2000A7409DF8A8009DF897C0089207930694E8
:100A30009DF894A09DF895909DF896809DF898E07B
:100A40009DF899709DF89A609DF89C5020909DF8B3
:100A5000A9209DF8AA309DF8AB409DF8AC001F92EC
:100A60009DF8AD201E9323949DF8AE309DF8AF40C5
:100A70001D901C929DF8B0009DF8B1201B931A9414
:100A80009DF8B2309DF8B340199018929DF8B400CB
:100A90009DF8B520179316949DF8B63015901492D2
:100AA0009DF8B8009DF8B7409DF8B92013931190B8
:100AB000129405492292054B9DF8BAB0044A3C2095
:100AC000CDF814C02EE100BF000002400004024037
:100AD000000802401C8AE4071C8A44BF0135EDB2BD
:100AE000A40706D5109C04F1010C5FFA8CFCCDF82C
:100AF00040C01C8A640706D50F9C04F1010C5FFA04
:100B00008CFCCDF83CC01C8A240706D50E9C04F151
:100B1000010C5FFA8CFCCDF838C01C8AE40606D5BF
:100B20000D9C04F1010C5FFA8CFCCDF834C01C8ADA
:100B3000A40606D50C9C04F1010C5FFA8CFCCDF8E0
:100B400030C01C8A640606D50B9C04F1010C5FFAC8
:100B50008CFCCDF82CC01C8A240606D50A9C04F116
:100B6000010C5FFA8CFCCDF828C01C8AE40506D580
:100B7000099C04F1010C5FFA8CFCCDF824C01C8A9E
:100B8000A40506D5089C04F1010C5FFA8CFCCDF895
:100B900020C01C8A640506D5079C04F1010C5FFA8D
:100BA0008CFCCDF81CC01C8A240506D5069C04F1DB
:100BB000010C5FFA8CFCCDF818C01C8AE40406D541
:100BC000209C04F1010C5FFA8CFCCDF880C01C8ADB
:100BD000A40406D51F9C04F1010C5FFA8CFCCDF82F
:100BE0007CC01C8A640406D51E9C04F1010C5FFACB
:100BF0008CFCCDF878C01C8A24B2002CC0F2D880BE
:100C0000148AE40706D51D9C04F1010C5FFA8CFCE4
:100C1000CDF874C0148AA40706D51C9C04F1010CFD
:100C20005FFA8CFCCDF870C0148A640706D51B9C53
:100C300004F1010C5FFA8CFCCDF86CC0148A240717
:100C400006D51A9C04F1010C5FFA8CFCCDF868C043
:100C5000148AE40606D5199C04F1010C5FFA8CFC99
:100C6000CDF864C0148AA40606D5189C04F1010CC2
:100C70005FFA8CFCCDF860C0148A640606D5179C18
:100C800004F1010C5FFA8CFCCDF85CC0148A2406D8
:100C900006D5169C04F1010C5FFA8CFCCDF858C007
:100CA000148A640506D5159C04F1010C5FFA8CFCCE
:100CB000CDF854C0148A240506D5149C04F1010C07
:100CC0005FFA8CFCCDF850C0148AE40406D5139C5E
:100CD00004F1010C5FFA8CFCCDF84CC0148AA4041A
:100CE00006D5129C04F1010C5FFA8CFCCDF848C0CB
:100CF000148A640406D5119C04F1010C5FFA8CFC83
:100D0000CDF844C0148A24B2002C49DBDFF8B4C308
:100D1000BCF81040640744BF0BF1010B5FFA8BFB7A
:100D200001384DD00C8AE4060C8A44BF0AF1010A4E
:100D30005FFA8AFAA4060C8A44BF09F101095FFA36
:100D400089F964060C8A44BF08F101085FFA88F843
:100D5000E40706D5059C04F1010C5FFA8CFCCDF884
:100D600014C00C8AE4050C8A44BF0EF1010E5FFA30
:100D70008EFE24050C8A44BF0137FFB2E4040C8ABE
:100D800048BF013624B248BFF6B2002CBFF6A2AE6F
:100D9000219C04F1010C5FFA8CFCCDF884C099E62B
:100DA000229C04F1010C5FFA8CFCCDF888C0ADE701
:100DB000239C04F1010C5FFA8CFCCDF88CC01FE77A
:100DC000DDF814C0219A109B0F9C8DF895908DF83A
:100DD00097C0DDF83890DDF834C08DF89B208DF891
:100DE0009D300C9A0B9B8DF89E400A9C8DF89F902D
:100DF0008DF8A0C0DDF82490DDF820C08DF8A1208A
:100E00008DF8A230079A069B8DF8A340209C8DF8A0
:100E1000A4908DF8A5C08DF8A6208DF8A7308DF888
:100E200094A08DF896808DF898E08DF899708DF8E3
:100E30009A608DF89C508DF8A840DDF87C90DDF824
:100E400078C0239A1C9C8DF8A9908DF8AAC0DDF873
:100E50006C90DDF868C08DF8AB20199A1D9B8DF859
:100E6000AD408DF8AE90179CDDF858908DF8AFC06E
:100E70008DF8B020DDF854C0149A8DF8AC308DF8A0
:100E8000B240189B139C8DF8B3908DF8B4C08DF8C8
:100E9000B520DDF84890DDF844C0229A8DF8B130D5
:100EA0008DF8B6408DF8B7908DF8B8C025AB8DF8A9
:100EB000B9200DF1BB048DF8BAB0012113F8012B54
:100EC000072A8CBF02460A46A34203F8012CF5D13B
:100ED0009DF89D509DF897909DF894B09DF8966070
:100EE0009DF895809DF89E409DF89C70294622466D
:100EF0004B46CDF800B0019602974046FFF77CFCC8
:100F0000CDF80080089001950294594632463B4640
:100F10004846FFF7B7FC9DF8A7309DF8A8C09DF89C
:100F2000A6A009901946624650460693CDF81CC00B
:100F3000FFF702FD9DF89B109DF8B7306BF07F0224
:100F40009DF8B8C042EA480861F07F0B63F07F0368
:100F500048EA860843EA4C0C4BEA47079DF8A9305B
:100F60009DF8B9B048EAC9089DF898909DF8AA6024
:100F700047EA85079DF8BA509DF8B0204CEA8B0CE3
:100F800048EA091863F07F039DF8AE909DF8A2101F
:100F90004CEAC50C43EA46039DF8B1609DF8A3B046
:100FA0009DF8AB50CDF828904CEA0010DDF8209069
:100FB0009DF89FC062F07F0242EA460247EAC404FD
:100FC0009DF8A46061F07F0141EA4B0143EA85038B
:100FD00044EA0C149DF8A55040EA491CDDF8249021
:100FE00041EA86019DF8B2609DF8ACB041EAC501C6
:100FF0004CEA891CDDF818909DF8AD7042EA860233
:1010000041EA0A1A9DF8B3602D499DF8B45043EAAD
:10101000CB034AEA491ADDF828909DF8B50042EA68
:10102000C60243EA07139DF8A06042EA051243EAAC
:10103000491391F804909DF899B05FFA8CFC44EA4A
:10104000461442EA40129DF8B66007989DF8A150F8
:10105000E1459DF89A7048EA4B184AEA801A9DF8D3
:10106000AFB042EA861218BF81F804C04879D2B204
:1010700044EA8514124D904218BF6A718A7943EA96
:101080008B13DBB20E489A4218BF8371CB795FFA9B
:101090008AFA0B4A534518BF82F807A00B7AE4B2CC
:1010A000074AA34218BF14724B7A48EA8717FFB267
:1010B000034ABB4218BF577231B0BDE8F08F00BF82
:1010C00080040020000C024010B5134C23683B2B19
:1010D00016D9124A124B1068D96A88420BD011688F
:1010E000D96252681A63186BD96AFFF7E9FABDE84A
:1010F0001040FFF769BC5068196B8842EFD1F6E7E2
:101100004FF0FF300146FFF7DBFA2368013323601D
:10111000BDE81040FFF758BC74040020780400209C
:101120000C0000200A4A10B5138A0A4C23F0010370
:101130001B041B0C1382A38A9BB283F48073A382CB
:10114000FFF7C2FFA38A9BB283F48073A38210BD12
:1011500000100040000802402DE9F0412549264DCD
:101160000022264C0A6013464A6080200A72CA6038
:101170000A610A758A6281F824208A61CA610A625A
:101180002A60E05401330A2BFBD11D4B4FF0FF3492
:101190001C605C60FFF76EFA00F074F8FFF7C4FAA9
:1011A00000F070F8FFF710FC00F06CF820462146C4
:1011B000FFF786FA1349144B486A144A40F01008A6
:1011C00001254FF0000C41F261074FF47A7620249C
:1011D0004FF40060C1F82480A3F804C01F85DE62CC
:1011E0009D8182F82B4350601A8892B22A431A805C
:1011F000BDE8F0810C000020740400208004002071
:1012000078040020003802400010004000E100E0B7
:10121000184B19485A6B194642F001025A630023D1
:1012200001E0834224D04A6B01339207F9D5124A78
:1012300093421CD0114945F255530B60104B01E00D
:10124000013B02D0CA68D007FAD40C4903220C4BE8
:101250004A6001E0013B02D0CA689207FAD4074B0A
:1012600040F6FF714CF6CC4299601A6070477047A7
:10127000704700BF0038024001093D0000300040C7
:1012800000093D00024B4AF6AA221A60704700BFCF
:0412900000300040EA
:0400000508000000EF
:00000001FF
